{
  "_format": "hh-sol-artifact-1",
  "contractName": "FHESocial",
  "sourceName": "src/FHESocial.sol",
  "abi": [
    {
      "anonymous": false,
      "inputs": [
        {
          "indexed": true,
          "internalType": "uint256",
          "name": "channelId",
          "type": "uint256"
        },
        {
          "indexed": false,
          "internalType": "string",
          "name": "name",
          "type": "string"
        },
        {
          "indexed": false,
          "internalType": "address",
          "name": "creator",
          "type": "address"
        }
      ],
      "name": "ChannelCreated",
      "type": "event"
    },
    {
      "anonymous": false,
      "inputs": [
        {
          "indexed": true,
          "internalType": "uint256",
          "name": "channelId",
          "type": "uint256"
        },
        {
          "indexed": true,
          "internalType": "address",
          "name": "sender",
          "type": "address"
        },
        {
          "indexed": false,
          "internalType": "bool",
          "name": "isAnonymous",
          "type": "bool"
        }
      ],
      "name": "MessagePosted",
      "type": "event"
    },
    {
      "anonymous": false,
      "inputs": [
        {
          "indexed": true,
          "internalType": "address",
          "name": "user",
          "type": "address"
        },
        {
          "indexed": false,
          "internalType": "string",
          "name": "username",
          "type": "string"
        }
      ],
      "name": "UserRegistered",
      "type": "event"
    },
    {
      "anonymous": false,
      "inputs": [
        {
          "indexed": true,
          "internalType": "uint256",
          "name": "channelId",
          "type": "uint256"
        },
        {
          "indexed": true,
          "internalType": "address",
          "name": "voter",
          "type": "address"
        }
      ],
      "name": "VoteCast",
      "type": "event"
    },
    {
      "anonymous": false,
      "inputs": [
        {
          "indexed": true,
          "internalType": "uint256",
          "name": "channelId",
          "type": "uint256"
        },
        {
          "indexed": false,
          "internalType": "string",
          "name": "question",
          "type": "string"
        }
      ],
      "name": "VoteCreated",
      "type": "event"
    },
    {
      "inputs": [
        {
          "internalType": "uint256",
          "name": "_channelId",
          "type": "uint256"
        },
        {
          "internalType": "externalEuint8",
          "name": "_encryptedOption",
          "type": "bytes32"
        },
        {
          "internalType": "bytes",
          "name": "_inputProof",
          "type": "bytes"
        }
      ],
      "name": "castVote",
      "outputs": [],
      "stateMutability": "nonpayable",
      "type": "function"
    },
    {
      "inputs": [],
      "name": "channelCount",
      "outputs": [
        {
          "internalType": "uint256",
          "name": "",
          "type": "uint256"
        }
      ],
      "stateMutability": "view",
      "type": "function"
    },
    {
      "inputs": [
        {
          "internalType": "uint256",
          "name": "",
          "type": "uint256"
        },
        {
          "internalType": "uint256",
          "name": "",
          "type": "uint256"
        }
      ],
      "name": "channelMessages",
      "outputs": [
        {
          "internalType": "address",
          "name": "sender",
          "type": "address"
        },
        {
          "internalType": "string",
          "name": "content",
          "type": "string"
        },
        {
          "internalType": "bool",
          "name": "isAnonymous",
          "type": "bool"
        },
        {
          "internalType": "uint256",
          "name": "timestamp",
          "type": "uint256"
        }
      ],
      "stateMutability": "view",
      "type": "function"
    },
    {
      "inputs": [
        {
          "internalType": "uint256",
          "name": "",
          "type": "uint256"
        }
      ],
      "name": "channelVotes",
      "outputs": [
        {
          "internalType": "string",
          "name": "question",
          "type": "string"
        },
        {
          "internalType": "uint256",
          "name": "startTime",
          "type": "uint256"
        },
        {
          "internalType": "uint256",
          "name": "endTime",
          "type": "uint256"
        },
        {
          "internalType": "bool",
          "name": "active",
          "type": "bool"
        }
      ],
      "stateMutability": "view",
      "type": "function"
    },
    {
      "inputs": [
        {
          "internalType": "uint256",
          "name": "",
          "type": "uint256"
        }
      ],
      "name": "channels",
      "outputs": [
        {
          "internalType": "string",
          "name": "name",
          "type": "string"
        },
        {
          "internalType": "string",
          "name": "description",
          "type": "string"
        },
        {
          "internalType": "address",
          "name": "creator",
          "type": "address"
        },
        {
          "internalType": "uint256",
          "name": "createdAt",
          "type": "uint256"
        },
        {
          "internalType": "bool",
          "name": "active",
          "type": "bool"
        }
      ],
      "stateMutability": "view",
      "type": "function"
    },
    {
      "inputs": [
        {
          "internalType": "string",
          "name": "_name",
          "type": "string"
        },
        {
          "internalType": "string",
          "name": "_description",
          "type": "string"
        }
      ],
      "name": "createChannel",
      "outputs": [
        {
          "internalType": "uint256",
          "name": "",
          "type": "uint256"
        }
      ],
      "stateMutability": "nonpayable",
      "type": "function"
    },
    {
      "inputs": [
        {
          "internalType": "string",
          "name": "_name",
          "type": "string"
        },
        {
          "internalType": "string",
          "name": "_description",
          "type": "string"
        },
        {
          "internalType": "string",
          "name": "_voteQuestion",
          "type": "string"
        },
        {
          "internalType": "string[]",
          "name": "_voteOptions",
          "type": "string[]"
        },
        {
          "internalType": "uint256",
          "name": "_voteDuration",
          "type": "uint256"
        }
      ],
      "name": "createChannelWithVote",
      "outputs": [
        {
          "internalType": "uint256",
          "name": "",
          "type": "uint256"
        }
      ],
      "stateMutability": "nonpayable",
      "type": "function"
    },
    {
      "inputs": [
        {
          "internalType": "uint256",
          "name": "_channelId",
          "type": "uint256"
        },
        {
          "internalType": "string",
          "name": "_question",
          "type": "string"
        },
        {
          "internalType": "string[]",
          "name": "_options",
          "type": "string[]"
        },
        {
          "internalType": "uint256",
          "name": "_duration",
          "type": "uint256"
        }
      ],
      "name": "createVote",
      "outputs": [],
      "stateMutability": "nonpayable",
      "type": "function"
    },
    {
      "inputs": [
        {
          "internalType": "uint256",
          "name": "_channelId",
          "type": "uint256"
        }
      ],
      "name": "endVote",
      "outputs": [],
      "stateMutability": "nonpayable",
      "type": "function"
    },
    {
      "inputs": [
        {
          "internalType": "uint256",
          "name": "_channelId",
          "type": "uint256"
        }
      ],
      "name": "getChannel",
      "outputs": [
        {
          "internalType": "string",
          "name": "name",
          "type": "string"
        },
        {
          "internalType": "string",
          "name": "description",
          "type": "string"
        },
        {
          "internalType": "address",
          "name": "creator",
          "type": "address"
        },
        {
          "internalType": "uint256",
          "name": "createdAt",
          "type": "uint256"
        },
        {
          "internalType": "bool",
          "name": "active",
          "type": "bool"
        }
      ],
      "stateMutability": "view",
      "type": "function"
    },
    {
      "inputs": [
        {
          "internalType": "uint256",
          "name": "_channelId",
          "type": "uint256"
        },
        {
          "internalType": "uint256",
          "name": "_offset",
          "type": "uint256"
        },
        {
          "internalType": "uint256",
          "name": "_limit",
          "type": "uint256"
        }
      ],
      "name": "getMessages",
      "outputs": [
        {
          "internalType": "address[]",
          "name": "senders",
          "type": "address[]"
        },
        {
          "internalType": "string[]",
          "name": "contents",
          "type": "string[]"
        },
        {
          "internalType": "bool[]",
          "name": "isAnonymousFlags",
          "type": "bool[]"
        },
        {
          "internalType": "uint256[]",
          "name": "timestamps",
          "type": "uint256[]"
        }
      ],
      "stateMutability": "view",
      "type": "function"
    },
    {
      "inputs": [
        {
          "internalType": "address",
          "name": "_user",
          "type": "address"
        }
      ],
      "name": "getUser",
      "outputs": [
        {
          "internalType": "string",
          "name": "username",
          "type": "string"
        },
        {
          "internalType": "bool",
          "name": "registered",
          "type": "bool"
        },
        {
          "internalType": "uint256",
          "name": "registeredAt",
          "type": "uint256"
        }
      ],
      "stateMutability": "view",
      "type": "function"
    },
    {
      "inputs": [
        {
          "internalType": "uint256",
          "name": "_channelId",
          "type": "uint256"
        }
      ],
      "name": "getVoteInfo",
      "outputs": [
        {
          "internalType": "string",
          "name": "question",
          "type": "string"
        },
        {
          "internalType": "string[]",
          "name": "options",
          "type": "string[]"
        },
        {
          "internalType": "uint256",
          "name": "startTime",
          "type": "uint256"
        },
        {
          "internalType": "uint256",
          "name": "endTime",
          "type": "uint256"
        },
        {
          "internalType": "bool",
          "name": "active",
          "type": "bool"
        }
      ],
      "stateMutability": "view",
      "type": "function"
    },
    {
      "inputs": [
        {
          "internalType": "uint256",
          "name": "_channelId",
          "type": "uint256"
        },
        {
          "internalType": "address",
          "name": "_user",
          "type": "address"
        }
      ],
      "name": "hasVoted",
      "outputs": [
        {
          "internalType": "bool",
          "name": "",
          "type": "bool"
        }
      ],
      "stateMutability": "view",
      "type": "function"
    },
    {
      "inputs": [
        {
          "internalType": "uint256",
          "name": "_channelId",
          "type": "uint256"
        },
        {
          "internalType": "string",
          "name": "_content",
          "type": "string"
        },
        {
          "internalType": "bool",
          "name": "isAnonymous",
          "type": "bool"
        }
      ],
      "name": "postMessage",
      "outputs": [],
      "stateMutability": "nonpayable",
      "type": "function"
    },
    {
      "inputs": [],
      "name": "protocolId",
      "outputs": [
        {
          "internalType": "uint256",
          "name": "",
          "type": "uint256"
        }
      ],
      "stateMutability": "pure",
      "type": "function"
    },
    {
      "inputs": [
        {
          "internalType": "string",
          "name": "_username",
          "type": "string"
        }
      ],
      "name": "register",
      "outputs": [],
      "stateMutability": "nonpayable",
      "type": "function"
    },
    {
      "inputs": [
        {
          "internalType": "address",
          "name": "",
          "type": "address"
        }
      ],
      "name": "users",
      "outputs": [
        {
          "internalType": "string",
          "name": "username",
          "type": "string"
        },
        {
          "internalType": "bool",
          "name": "registered",
          "type": "bool"
        },
        {
          "internalType": "uint256",
          "name": "registeredAt",
          "type": "uint256"
        }
      ],
      "stateMutability": "view",
      "type": "function"
    }
  ],
  "bytecode": "0x6080604052346200015a575f6060620000176200015e565b8281528260208201528260408201520152620000326200015e565b606073687820221192c5b662b25367f70076a37bc79b6c9182815273848b0066793bcc60346da1f49049357399b8d59580602083015273a02cda4ca3a71d7c46997716f4283aa851c2881291826040820152731364cbbf2cdf5032c47d8226a6f6fbd2afcdacac938491015260018060a01b0319937f9e7b61f58c47dc699ac88507c4f5bb9f121c03808c5676a8078fe583e464970090858254161790557f9e7b61f58c47dc699ac88507c4f5bb9f121c03808c5676a8078fe583e464970190848254161790557f9e7b61f58c47dc699ac88507c4f5bb9f121c03808c5676a8078fe583e464970290838254161790557f9e7b61f58c47dc699ac88507c4f5bb9f121c03808c5676a8078fe583e4649703918254161790556040516125179081620001938239f35b5f80fd5b60405190608082016001600160401b038111838210176200017e57604052565b634e487b7160e01b5f52604160045260245ffdfe60806040526004361015610011575f80fd5b5f803560e01c806310df54a014611ca95780631ab5db5b1461167e578063438596321461161f578063443c3b25146111b157806350d65356146110bc5780636f77926b1461104c57806378d987d914610fc45780637af919d814610c8b5780638589c7a51461098e578063865df0ad146108d05780638d824273146107ee578063a87430ba1461079c578063acf8bf2a1461077e578063cd6b7c2a14610713578063d5a368fe146103d8578063da1f12ab146103bb578063e5949b5d146103565763f2c298be146100e0575f80fd5b346103535760209081600319360112610353576001600160401b039160043583811161034f57610114903690600401611dc6565b338452838352600160ff8160408720015416610315578115158061030b575b156102c6576040519061014582611f39565b6101503684866121a7565b82528482019080825260408301914283523388528787526040882093519889519081116102b25761018b816101858754611ee6565b87612202565b87601f821160011461022957916101e48260029695936101fe958d9e7f48cac28ad4dc618e15f4c2dd5e97751182f166de97b25618318b2112aa951a2f9d9e9261021e575b50508160011b915f199060031b1c19161790565b86555b5115159085019060ff801983541691151516179055565b519101556102186040519283928684523396840191612245565b0390a280f35b015190505f806101d0565b858a52888a209a601f1983168b5b81811061029d5750927f48cac28ad4dc618e15f4c2dd5e97751182f166de97b25618318b2112aa951a2f9a9b9c6101fe95938795938360029a999510610285575b505050811b0186556101e7565b01515f1960f88460031b161c191690555f8080610278565b838301518e559c86019c928b01928b01610237565b634e487b7160e01b89526041600452602489fd5b60405162461bcd60e51b815260048101859052601760248201527f496e76616c696420757365726e616d65206c656e6774680000000000000000006044820152606490fd5b5083821115610133565b60405162461bcd60e51b8152600481018590526012602482015271105b1c9958591e481c9959da5cdd195c995960721b6044820152606490fd5b8280fd5b80fd5b503461035357602036600319011261035357604090600435815260016020522061037f81611fa3565b6103b761038e60018401611fa3565b9260018060a01b036002820154169060ff60046003830154920154169160405195869586611d7f565b0390f35b503461035357806003193601126103535760206040516127118152f35b50346103535760603660031901126103535760246004356001600160401b03823581811161070f5761040e903690600401611dc6565b90604435908115159586830361070b57338852602094888652600161043b60ff8260408d20015416612083565b6104486004548910612045565b878a5280875260ff600460408c20015416156106d457851515806106c8575b1561068b57878a526002875260408a2094156106845789935b604051966080880188811085821117610671576040526001600160a01b0395861688526104af913691906121a7565b9287870193845260408701948a86526060880196428852805490600160401b82101561065e57906104e4918582018155611eb9565b98909861064b5751166bffffffffffffffffffffffff60a01b88541617875581870193519081519384116106395750610527836105218654611ee6565b86612202565b8a8892601f85116001146105ad57508361059d94600397947f4ef7d62c2d12f49e4bac990a9921b43897c931f8f4f0b5337a11172fdcca5b3e9b9a999794610582949261021e5750508160011b915f199060031b1c19161790565b90555b511515600285019060ff801983541691151516179055565b519101556040519384523393a380f35b93929050601f19831691858d52898d20928d5b81811061062457509261059d95928592600399967f4ef7d62c2d12f49e4bac990a9921b43897c931f8f4f0b5337a11172fdcca5b3e9d9c9b99961061060d575b505050811b019055610585565b01515f19838a1b60f8161c191690555f8080610600565b82840151855593860193928b01928b016105c0565b634e487b7160e01b8c5260416004528bfd5b634e487b7160e01b8d5260048d9052828dfd5b634e487b7160e01b8e526041600452838efd5b85634e487b7160e01b5f5260416004525ffd5b3393610480565b60405162461bcd60e51b81526004810188905260168185015275092dcecc2d8d2c840c6dedce8cadce840d8cadccee8d60531b6044820152606490fd5b506103e8861115610467565b60405162461bcd60e51b8152600481018890526010818501526f4368616e6e656c20696e61637469766560801b6044820152606490fd5b8780fd5b8480fd5b503461035357602036600319011261035357604061076891600435815260036020522061073f81611fa3565b9060028101549060ff600460038301549201541690604051948594608086526080860190611d41565b9260208501526040840152151560608301520390f35b50346103535780600319360112610353576020600454604051908152f35b5034610353576020366003190112610353576040906001600160a01b036107c1611e23565b16815280602052206107d281611fa3565b6103b7600260ff60018501541693015460405193849384611e95565b5034610353576020908160031936011261035357906004356108136004548210612045565b8252600381526040822091600192600181019260028201549260038301549561084360ff60048601541694611fa3565b958054906108508261229b565b9361085e6040519586611f82565b8285529081528481208585015b8383106108b5576108928a8a8a8e61089f8c8c60405197889760a0895260a0890190611d41565b9187830390880152611e39565b9260408501526060840152151560808301520390f35b848781926108c285611fa3565b81520192019201919061086b565b5034610353576020366003190112610353576004356108f26004548210612045565b80825260036020526040822090600482019182549161091360ff8416612483565b8452600160205260408420600201546001600160a01b0316331490811561097f575b50156109445760ff1916905580f35b60405162461bcd60e51b815260206004820152601360248201527210d85b9b9bdd08195b99081d9bdd19481e595d606a1b6044820152606490fd5b6003915001544210155f610935565b5034610bf1576060366003190112610bf1576004356044356001600160401b038111610bf1576109c2903690600401611dc6565b90335f526020905f82526109df60ff600160405f20015416612083565b6109ec6004548510612045565b835f526003825260405f2090610a0860ff600484015416612483565b6003820154421015610c59576006820193335f5284845260ff60405f205416610c24575f9291610a399136916121a7565b9083610a9d60018060a01b0393847f9e7b61f58c47dc699ac88507c4f5bb9f121c03808c5676a8078fe583e464970154169060405196878094819363196d0b9b60e01b83526024356004840152336024840152608060448401526084830190611d41565b6002606483015203925af1928315610be6575f93610bf5575b507f9e7b61f58c47dc699ac88507c4f5bb9f121c03808c5676a8078fe583e46497009082825416803b15610bf157604051630f8e573b60e21b815260048101869052336024820152905f908290604490829084905af18015610be657610bc8575b5090600588949392335f520185528260405f20555416803b1561034f57604051635ca4b5b160e11b8152600481019290925230602483015282908290604490829084905af18015610bbd57610ba5575b5050335f525260405f20600160ff1982541617905533907ff1003b73c437642c0460aee9cd9628b0b8c447b66e6c7c905531b9c644214a118380a380f35b610bae90611f54565b610bb957835f610b67565b8380fd5b6040513d84823e3d90fd5b60059850610bda909493929194611f54565b5f979390919293610b17565b6040513d5f823e3d90fd5b5f80fd5b9092508381813d8311610c1d575b610c0d8183611f82565b81010312610bf15751915f610ab6565b503d610c03565b60405162461bcd60e51b815260048101859052600d60248201526c105b1c9958591e481d9bdd1959609a1b6044820152606490fd5b60405162461bcd60e51b815260048101849052600a602482015269159bdd1948195b99195960b21b6044820152606490fd5b34610bf1576040366003190112610bf1576004356001600160401b038111610bf157610cbb903690600401611dc6565b6024356001600160401b038111610bf157610cda903690600401611dc6565b9091335f525f602052610cf660ff600160405f20015416612083565b80151580610fb9575b610d08906120c0565b610d3c60045493610d1885612185565b60045560405193610d2885611f1e565b610d333685896121a7565b855236916121a7565b602083015233604083015242606083015260016080830152825f52600160205260405f209382518051906001600160401b038211610f3257610d8882610d828954611ee6565b89612202565b602090601f8311600114610f5157610db692915f9183610f465750508160011b915f199060031b1c19161790565b85555b6020830151918251956001600160401b038711610f3257868694610def602099610de66001860154611ee6565b60018601612202565b8890601f8311600114610eaa575f805160206124c28339815191529697610e3584610e8396956004956080955f92610e9f5750508160011b915f199060031b1c19161790565b60018501555b6002840160018060a01b036040830151166bffffffffffffffffffffffff60a01b825416179055606081015160038501550151151591019060ff801983541691151516179055565b610e94604051928392339184612265565b0390a2604051908152f35b015190508e806101d0565b60018498939298015f52895f20905f5b601f1984168110610f185750926001836080935f805160206124c28339815191529a9b610e839897600497601f19811610610f00575b505050811b016001850155610e3b565b01515f1960f88460031b161c191690558d8080610ef0565b818a01518355988b01988a98506001909201918b01610eba565b634e487b7160e01b5f52604160045260245ffd5b0151905088806101d0565b9190875f5260205f20905f935b601f1984168510610f9e576001945083601f19811610610f86575b505050811b018555610db9565b01515f1960f88460031b161c19169055878080610f79565b81810151835560209485019460019093019290910190610f5e565b506040811115610cff565b34610bf1576040366003190112610bf1576024356004355f52600260205260405f20908154811015610bf157610ff991611eb9565b5080546001600160a01b031661101160018301611fa3565b91600360ff60028301541691015461103b6040519485948552608060208601526080850190611d41565b911515604084015260608301520390f35b34610bf1576020366003190112610bf1576001600160a01b0361106d611e23565b165f525f60205260405f2060405161108481611f39565b6103b7604061109284611fa3565b92838152600260ff6001870154161515958660208401520154918291015260405193849384611e95565b34610bf1576060366003190112610bf1576110de6044356024356004356122f8565b9092604051938493608085019060808652835180925260a08601916020809501905f5b818110611191575050509061111c9186820385880152611e39565b84810360408601528280835192838152019201905f5b8181106111785750505083810360608501528180845192838152019301915f5b82811061116157505050500390f35b835185528695509381019392810192600101611152565b8251151584528796509284019291840191600101611132565b82516001600160a01b031685528998509386019391860191600101611101565b34610bf1576080366003190112610bf1576024356001600160401b038111610bf1576111e1903690600401611dc6565b906044356001600160401b038111610bf157611201903690600401611df3565b90335f525f60205261121c60ff600160405f20015416612083565b61122b60045460043510612045565b6004355f5260016020523360018060a01b03600260405f20015416036115da576004355f52600360205260ff600460405f2001541661159f57600282101580611594575b61127890612102565b610e10606435101580611585575b61128f90612146565b6004355f52600360205260405f20916001600160401b038511610f32576112c0856112ba8554611ee6565b85612202565b5f85601f811160011461152257806112ec925f91611517575b508160011b915f199060031b1c19161790565b83555b60018301600160401b8211610f325780548282558083106114a7575b505f908152602081209092805b83851061138857877f8225b3ad6e66d4c2342e977fbab464beaf3ae9d33b222938cff268dfd7b55b836113838960048a42600282015561135a6064354261228e565b600382015501600160ff1982541617905560405191829160208352600435956020840191612245565b0390a2005b8035601e1983360301811215610bf1576001600160401b038184013511610bf15780830135360360208285010113610bf1576113cb818401356105218654611ee6565b5f90601f81850135116001146114265760019261140884936020935f9181890135611417575b50870135908160011b915f199060031b1c19161790565b86555b01930194019391611318565b8882010185013591508e6113f1565b90845f5260205f20905f5b85840135601f1916811061148b57506001938493602093919285929088830135601f1981161061146b575b5050860135811b01865561140b565b855f1960f8858c013560031b161c1991848b010101351690558d8061145c565b90916020600181928286888b0101013581550193019101611431565b815f528260205f2091820191015b8181106114c2575061130b565b806114cf60019254611ee6565b806114dc575b50016114b5565b601f811183146114f157505f81555b896114d5565b5f9082825261150e601f60208420920160051c82018583016121ec565b818355556114eb565b9050860135886112d9565b50835f5260205f20905f5b601f198816811061156d575086601f19811610611554575b5050600185811b0183556112ef565b8501355f19600388901b60f8161c191690558580611545565b9091602060018192858a01358155019301910161152d565b506276a7006064351115611286565b50600a82111561126f565b60405162461bcd60e51b8152602060048201526013602482015272566f746520616c72656164792061637469766560681b6044820152606490fd5b60405162461bcd60e51b815260206004820152601d60248201527f4f6e6c792063726561746f722063616e2063726561746520766f7465730000006044820152606490fd5b34610bf1576040366003190112610bf1576024356001600160a01b0381169060043590829003610bf1576116566004548210612045565b5f526003602052600660405f2001905f52602052602060ff60405f2054166040519015158152f35b34610bf15760a0366003190112610bf1576004356001600160401b038111610bf1576116ae903690600401611dc6565b6024356001600160401b038111610bf1576116cd903690600401611dc6565b9290916044356001600160401b038111610bf1576116ef903690600401611dc6565b9290946064356001600160401b038111610bf157611711903690600401611df3565b939092335f525f60205261172e60ff600160405f20015416612083565b81151580611c9e575b611740906120c0565b600285101580611c93575b61175490612102565b610e10608435101580611c84575b61176b90612146565b61179f6004549761177b89612185565b6004556040519461178b86611f1e565b6117963686866121a7565b865236916121a7565b602084015233604084015242606084015260016080840152865f52600160205260405f209183518051906001600160401b038211610f32576117e5826101858754611ee6565b602090601f8311600114611c1c5761181392915f9183611c115750508160011b915f199060031b1c19161790565b83555b60208401519283516001600160401b038111610f3257899461183f82610de66001860154611ee6565b602090601f8311600114611b88575f805160206124c28339815191529697610e358461188696956004956080955f9261021e5750508160011b915f199060031b1c19161790565b611897604051928392339184612265565b0390a2835f52600360205260405f20916001600160401b038411610f32576118c3846112ba8554611ee6565b5f84601f8111600114611b2557806118ee925f91611b1a57508160011b915f199060031b1c19161790565b83555b600160401b8111610f32576001830154816001850155808210611aa6575b5081600184015f5260205f20905f935b83851061198857602088807f8225b3ad6e66d4c2342e977fbab464beaf3ae9d33b222938cff268dfd7b55b838c8b60048c4260028201556119626084354261228e565b600382015501600160ff19825416179055610e9460405192839288845288840191612245565b8035601e1983360301811215610bf1576001600160401b038184013511610bf15780830135360360208285010113610bf1576119cb818401356105218654611ee6565b5f90601f8185013511600114611a2557600192611a0784936020935f9181890135611a165750870135908160011b915f199060031b1c19161790565b86555b0193019401939161191f565b8882010185013591508f6113f1565b90845f5260205f20905f5b85840135601f19168110611a8a57506001938493602093919285929088830135601f19811610611a6a575b5050860135811b018655611a0a565b855f1960f8858c013560031b161c1991848b010101351690558e80611a5b565b90916020600181928286888b0101013581550193019101611a30565b600184015f5260205f20908282015b8183018110611ac557505061190f565b80611ad260019254611ee6565b80611adf575b5001611ab5565b601f81118314611af457505f81555b8a611ad8565b5f90828252611b11601f60208420920160051c82018583016121ec565b81835555611aee565b9050880135896112d9565b50601f19851690845f528560205f20925f5b818110611b6d575010611b54575b5050600184811b0183556118f1565b8701355f19600387901b60f8161c191690558680611b45565b8a840135855560019094019360209384019389935001611b37565b60018498939298015f5260205f20905f5b601f1984168110611bf65750926001836080935f805160206124c28339815191529a9b6118869897600497601f19811610611bde57505050811b016001850155610e3b565b01515f1960f88460031b161c191690555f8080610ef0565b818a015183556020998a01998e995060019093019201611b99565b015190508c806101d0565b9190855f5260205f20905f935b601f1984168510611c69576001945083601f19811610611c51575b505050811b018355611816565b01515f1960f88460031b161c191690558b8080611c44565b81810151835560209485019460019093019290910190611c29565b506276a7006084351115611762565b50600a85111561174b565b506040821115611737565b34610bf1576020366003190112610bf157600435611cca6004548210612045565b5f52600160205260405f2060405190611ce282611f1e565b611ceb81611fa3565b82526103b7611cfc60018301611fa3565b9283602082015260018060a01b036002840154169283604083015260ff6004600383015492836060860152015416151591826080820152519360405195869586611d7f565b91908251928382525f5b848110611d6b575050825f602080949584010152601f8019910116010190565b602081830181015184830182015201611d4b565b9390608093969592611d9c611daa9260a0885260a0880190611d41565b908682036020880152611d41565b6001600160a01b03909616604085015260608401521515910152565b9181601f84011215610bf1578235916001600160401b038311610bf15760208381860195010111610bf157565b9181601f84011215610bf1578235916001600160401b038311610bf1576020808501948460051b010111610bf157565b600435906001600160a01b0382168203610bf157565b90808251908181526020809101926020808460051b8301019501935f915b848310611e675750505050505090565b9091929394958480611e85600193601f198682030187528a51611d41565b9801930193019194939290611e57565b611ead60409295949395606083526060830190611d41565b94151560208201520152565b8054821015611ed2575f5260205f209060021b01905f90565b634e487b7160e01b5f52603260045260245ffd5b90600182811c92168015611f14575b6020831014611f0057565b634e487b7160e01b5f52602260045260245ffd5b91607f1691611ef5565b60a081019081106001600160401b03821117610f3257604052565b606081019081106001600160401b03821117610f3257604052565b6001600160401b038111610f3257604052565b602081019081106001600160401b03821117610f3257604052565b90601f801991011681019081106001600160401b03821117610f3257604052565b9060405191825f8254611fb581611ee6565b908184526020946001916001811690815f146120235750600114611fe5575b505050611fe392500383611f82565b565b5f90815285812095935091905b81831061200b575050611fe393508201015f8080611fd4565b85548884018501529485019487945091830191611ff2565b92505050611fe394925060ff191682840152151560051b8201015f8080611fd4565b1561204c57565b60405162461bcd60e51b815260206004820152600f60248201526e125b9d985b1a590818da185b9b995b608a1b6044820152606490fd5b1561208a57565b60405162461bcd60e51b815260206004820152600e60248201526d139bdd081c9959da5cdd195c995960921b6044820152606490fd5b156120c757565b60405162461bcd60e51b8152602060048201526013602482015272092dcecc2d8d2c840dcc2daca40d8cadccee8d606b1b6044820152606490fd5b1561210957565b60405162461bcd60e51b8152602060048201526015602482015274125b9d985b1a59081bdc1d1a5bdb9cc818dbdd5b9d605a1b6044820152606490fd5b1561214d57565b60405162461bcd60e51b815260206004820152601060248201526f24b73b30b634b210323ab930ba34b7b760811b6044820152606490fd5b5f1981146121935760010190565b634e487b7160e01b5f52601160045260245ffd5b9291926001600160401b038211610f3257604051916121d0601f8201601f191660200184611f82565b829481845281830111610bf1578281602093845f960137010152565b8181106121f7575050565b5f81556001016121ec565b9190601f811161221157505050565b611fe3925f5260205f20906020601f840160051c8301931061223b575b601f0160051c01906121ec565b909150819061222e565b908060209392818452848401375f828201840152601f01601f1916010190565b9160209161227e91959495604085526040850191612245565b6001600160a01b03909416910152565b9190820180921161219357565b6001600160401b038111610f325760051b60200190565b906122bc8261229b565b6122c96040519182611f82565b82815280926122da601f199161229b565b0190602036910137565b8051821015611ed25760209160051b010190565b9291926123086004548210612045565b5f5260029160206002602052604094855f20948554918286101561243757612330908661228e565b9180831161242f575b508482039182116121935761234d826122b2565b9261236361235a8461229b565b98519889611f82565b828852601f196123728461229b565b015f5b81811061242057505050612388826122b2565b95612392836122b2565b955f5b8481106123a757505050505093929190565b8060038b6123f6836123c46123be6001978961228e565b89611eb9565b50928b6123da83898060a01b03875416926122e4565b526123e6878501611fa3565b6123f083836122e4565b526122e4565b508087015460ff16612408848e6122e4565b90151590520154612419828b6122e4565b5201612395565b60608a82018401528201612375565b91505f612339565b5050505092915050805161244a81611f67565b5f815281519261245984611f67565b5f845282519261246884611f67565b5f8452519161247683611f67565b5f83525f36813793929190565b1561248a57565b60405162461bcd60e51b815260206004820152600f60248201526e566f7465206e6f742061637469766560881b6044820152606490fdfefc545d8238a35cd44f668c25c93ccb560847c7df295b83575c26c6d94c031cc9a2646970667358221220fcaa91d0872acaff5400caf0c8641701b41487c0ddc4a25bfb9e65ec9ca9472664736f6c63430008180033",
  "linkReferences": {},
  "deployedLinkReferences": {}
}